{
  "_format": "hh-sol-artifact-1",
  "contractName": "MultiSigApprovalFactory",
  "sourceName": "contracts/MultiSigApprovalFactory.sol",
  "abi": [
    {
      "anonymous": false,
      "inputs": [
        {
          "indexed": true,
          "internalType": "address",
          "name": "contractAddress",
          "type": "address"
        },
        {
          "indexed": true,
          "internalType": "address",
          "name": "creator",
          "type": "address"
        }
      ],
      "name": "MultiSigCreated",
      "type": "event"
    },
    {
      "inputs": [
        {
          "internalType": "address[]",
          "name": "approvers",
          "type": "address[]"
        }
      ],
      "name": "createMultiSig",
      "outputs": [
        {
          "internalType": "address",
          "name": "",
          "type": "address"
        }
      ],
      "stateMutability": "nonpayable",
      "type": "function"
    }
  ],
  "bytecode": "0x608060405234801561001057600080fd5b5061160a806100206000396000f3fe60806040523480156200001157600080fd5b50600436106200002e5760003560e01c80636caed85f1462000033575b600080fd5b6200005160048036038101906200004b919062000306565b62000069565b60405162000060919062000368565b60405180910390f35b600080826040516200007b906200010a565b62000087919062000453565b604051809103906000f080158015620000a4573d6000803e3d6000fd5b5090503373ffffffffffffffffffffffffffffffffffffffff168173ffffffffffffffffffffffffffffffffffffffff167ff20750c68e2543324242bed7c2adb016c838c1fd6275d3e096ef6484237e485860405160405180910390a380915050919050565b61115d806200047883390190565b6000604051905090565b600080fd5b600080fd5b600080fd5b6000601f19601f8301169050919050565b7f4e487b7100000000000000000000000000000000000000000000000000000000600052604160045260246000fd5b6200017c8262000131565b810181811067ffffffffffffffff821117156200019e576200019d62000142565b5b80604052505050565b6000620001b362000118565b9050620001c1828262000171565b919050565b600067ffffffffffffffff821115620001e457620001e362000142565b5b602082029050602081019050919050565b600080fd5b600073ffffffffffffffffffffffffffffffffffffffff82169050919050565b60006200022782620001fa565b9050919050565b62000239816200021a565b81146200024557600080fd5b50565b60008135905062000259816200022e565b92915050565b6000620002766200027084620001c6565b620001a7565b905080838252602082019050602084028301858111156200029c576200029b620001f5565b5b835b81811015620002c95780620002b4888262000248565b8452602084019350506020810190506200029e565b5050509392505050565b600082601f830112620002eb57620002ea6200012c565b5b8135620002fd8482602086016200025f565b91505092915050565b6000602082840312156200031f576200031e62000122565b5b600082013567ffffffffffffffff81111562000340576200033f62000127565b5b6200034e84828501620002d3565b91505092915050565b62000362816200021a565b82525050565b60006020820190506200037f600083018462000357565b92915050565b600081519050919050565b600082825260208201905092915050565b6000819050602082019050919050565b620003bc816200021a565b82525050565b6000620003d08383620003b1565b60208301905092915050565b6000602082019050919050565b6000620003f68262000385565b62000402818562000390565b93506200040f83620003a1565b8060005b83811015620004465781516200042a8882620003c2565b97506200043783620003dc565b92505060018101905062000413565b5085935050505092915050565b600060208201905081810360008301526200046f8184620003e9565b90509291505056fe60806040523480156200001157600080fd5b506040516200115d3803806200115d8339818101604052810190620000379190620002c4565b60005b8151811015620000ce5760018060008484815181106200005f576200005e62000315565b5b602002602001015173ffffffffffffffffffffffffffffffffffffffff1673ffffffffffffffffffffffffffffffffffffffff16815260200190815260200160002060006101000a81548160ff0219169083151502179055508080620000c5906200037d565b9150506200003a565b5050620003ca565b6000604051905090565b600080fd5b600080fd5b600080fd5b6000601f19601f8301169050919050565b7f4e487b7100000000000000000000000000000000000000000000000000000000600052604160045260246000fd5b6200013a82620000ef565b810181811067ffffffffffffffff821117156200015c576200015b62000100565b5b80604052505050565b600062000171620000d6565b90506200017f82826200012f565b919050565b600067ffffffffffffffff821115620001a257620001a162000100565b5b602082029050602081019050919050565b600080fd5b600073ffffffffffffffffffffffffffffffffffffffff82169050919050565b6000620001e582620001b8565b9050919050565b620001f781620001d8565b81146200020357600080fd5b50565b6000815190506200021781620001ec565b92915050565b6000620002346200022e8462000184565b62000165565b905080838252602082019050602084028301858111156200025a5762000259620001b3565b5b835b8181101562000287578062000272888262000206565b8452602084019350506020810190506200025c565b5050509392505050565b600082601f830112620002a957620002a8620000ea565b5b8151620002bb8482602086016200021d565b91505092915050565b600060208284031215620002dd57620002dc620000e0565b5b600082015167ffffffffffffffff811115620002fe57620002fd620000e5565b5b6200030c8482850162000291565b91505092915050565b7f4e487b7100000000000000000000000000000000000000000000000000000000600052603260045260246000fd5b7f4e487b7100000000000000000000000000000000000000000000000000000000600052601160045260246000fd5b6000819050919050565b60006200038a8262000373565b91507fffffffffffffffffffffffffffffffffffffffffffffffffffffffffffffffff8203620003bf57620003be62000344565b5b600182019050919050565b610d8380620003da6000396000f3fe608060405234801561001057600080fd5b506004361061007d5760003560e01c80636d218e481161005b5780636d218e481461010057806398951b5614610130578063b1e130fc1461014c578063eb15b8a6146101685761007d565b80630c0512e9146100825780630d61b519146100a05780635a43dc00146100d0575b600080fd5b61008a610198565b60405161009791906108b4565b60405180910390f35b6100ba60048036038101906100b59190610900565b61019e565b6040516100c79190610948565b60405180910390f35b6100ea60048036038101906100e59190610900565b610306565b6040516100f791906108b4565b60405180910390f35b61011a600480360381019061011591906109c1565b6103d3565b6040516101279190610948565b60405180910390f35b61014a60048036038101906101459190610900565b6103f3565b005b61016660048036038101906101619190610900565b610632565b005b610182600480360381019061017d9190610900565b610870565b60405161018f9190610948565b60405180910390f35b60025481565b6000600160003373ffffffffffffffffffffffffffffffffffffffff1673ffffffffffffffffffffffffffffffffffffffff16815260200190815260200160002060009054906101000a900460ff1661022c576040517f08c379a000000000000000000000000000000000000000000000000000000000815260040161022390610a4b565b60405180910390fd5b600080600084815260200190815260200160002090508060030160009054906101000a900460ff1615610294576040517f08c379a000000000000000000000000000000000000000000000000000000000815260040161028b90610ab7565b60405180910390fd5b8060020154816001015410156102df576040517f08c379a00000000000000000000000000000000000000000000000000000000081526004016102d690610b23565b60405180910390fd5b60018160030160006101000a81548160ff0219169083151502179055506001915050919050565b600080821161034a576040517f08c379a000000000000000000000000000000000000000000000000000000000815260040161034190610bb5565b60405180910390fd5b6002600081548092919061035d90610c04565b919050555060008060006002548152602001908152602001600020905060025481600001819055508281600201819055506002547ffcf3b1aa65a464cef2889608f99e8b8c0f680a4be6c2acb9d961c536a5a9294b846040516103c091906108b4565b60405180910390a2600254915050919050565b60016020528060005260406000206000915054906101000a900460ff1681565b600160003373ffffffffffffffffffffffffffffffffffffffff1673ffffffffffffffffffffffffffffffffffffffff16815260200190815260200160002060009054906101000a900460ff1661047f576040517f08c379a000000000000000000000000000000000000000000000000000000000815260040161047690610a4b565b60405180910390fd5b600080600083815260200190815260200160002090508060030160009054906101000a900460ff16156104e7576040517f08c379a00000000000000000000000000000000000000000000000000000000081526004016104de90610ab7565b60405180910390fd5b8060040160003373ffffffffffffffffffffffffffffffffffffffff1673ffffffffffffffffffffffffffffffffffffffff16815260200190815260200160002060009054906101000a900460ff1615610576576040517f08c379a000000000000000000000000000000000000000000000000000000000815260040161056d90610c98565b60405180910390fd5b60018160040160003373ffffffffffffffffffffffffffffffffffffffff1673ffffffffffffffffffffffffffffffffffffffff16815260200190815260200160002060006101000a81548160ff0219169083151502179055508060010160008154809291906105e590610c04565b91905055503373ffffffffffffffffffffffffffffffffffffffff16827f049c28adfe50bcf1b76fd95273b6a24566b9f377e52fddc653c3355248dad07a60405160405180910390a35050565b600160003373ffffffffffffffffffffffffffffffffffffffff1673ffffffffffffffffffffffffffffffffffffffff16815260200190815260200160002060009054906101000a900460ff166106be576040517f08c379a00000000000000000000000000000000000000000000000000000000081526004016106b590610a4b565b60405180910390fd5b600080600083815260200190815260200160002090508060030160009054906101000a900460ff1615610726576040517f08c379a000000000000000000000000000000000000000000000000000000000815260040161071d90610ab7565b60405180910390fd5b8060040160003373ffffffffffffffffffffffffffffffffffffffff1673ffffffffffffffffffffffffffffffffffffffff16815260200190815260200160002060009054906101000a900460ff166107b4576040517f08c379a00000000000000000000000000000000000000000000000000000000081526004016107ab90610d04565b60405180910390fd5b60008160040160003373ffffffffffffffffffffffffffffffffffffffff1673ffffffffffffffffffffffffffffffffffffffff16815260200190815260200160002060006101000a81548160ff02191690831515021790555080600101600081548092919061082390610d24565b91905055503373ffffffffffffffffffffffffffffffffffffffff16827f6a3eb8ca820be079fbd3fa6f657d5eb9882f642d01bf0ff5589af458d3331af760405160405180910390a35050565b6000806000808481526020019081526020016000209050806002015481600101541015915050919050565b6000819050919050565b6108ae8161089b565b82525050565b60006020820190506108c960008301846108a5565b92915050565b600080fd5b6108dd8161089b565b81146108e857600080fd5b50565b6000813590506108fa816108d4565b92915050565b600060208284031215610916576109156108cf565b5b6000610924848285016108eb565b91505092915050565b60008115159050919050565b6109428161092d565b82525050565b600060208201905061095d6000830184610939565b92915050565b600073ffffffffffffffffffffffffffffffffffffffff82169050919050565b600061098e82610963565b9050919050565b61099e81610983565b81146109a957600080fd5b50565b6000813590506109bb81610995565b92915050565b6000602082840312156109d7576109d66108cf565b5b60006109e5848285016109ac565b91505092915050565b600082825260208201905092915050565b7f4e6f7420616e20617070726f7665720000000000000000000000000000000000600082015250565b6000610a35600f836109ee565b9150610a40826109ff565b602082019050919050565b60006020820190508181036000830152610a6481610a28565b9050919050565b7f50726f706f73616c20616c726561647920657865637574656400000000000000600082015250565b6000610aa16019836109ee565b9150610aac82610a6b565b602082019050919050565b60006020820190508181036000830152610ad081610a94565b9050919050565b7f4e6f7420656e6f75676820617070726f76616c73000000000000000000000000600082015250565b6000610b0d6014836109ee565b9150610b1882610ad7565b602082019050919050565b60006020820190508181036000830152610b3c81610b00565b9050919050565b7f417070726f76616c73207265717569726564206d75737420626520677265617460008201527f6572207468616e20300000000000000000000000000000000000000000000000602082015250565b6000610b9f6029836109ee565b9150610baa82610b43565b604082019050919050565b60006020820190508181036000830152610bce81610b92565b9050919050565b7f4e487b7100000000000000000000000000000000000000000000000000000000600052601160045260246000fd5b6000610c0f8261089b565b91507fffffffffffffffffffffffffffffffffffffffffffffffffffffffffffffffff8203610c4157610c40610bd5565b5b600182019050919050565b7f416c726561647920617070726f76656400000000000000000000000000000000600082015250565b6000610c826010836109ee565b9150610c8d82610c4c565b602082019050919050565b60006020820190508181036000830152610cb181610c75565b9050919050565b7f4e6f7420617070726f7665640000000000000000000000000000000000000000600082015250565b6000610cee600c836109ee565b9150610cf982610cb8565b602082019050919050565b60006020820190508181036000830152610d1d81610ce1565b9050919050565b6000610d2f8261089b565b915060008203610d4257610d41610bd5565b5b60018203905091905056fea2646970667358221220dea302e91062e0c49395a466bfa7067cc3fa1a73dd49a844edcf1d67f5521fc264736f6c63430008130033a264697066735822122021c9bebb09896a0b690b6b841013fee968ed2e2f5ed19f60f5358283b6adef3164736f6c63430008130033",
  "linkReferences": {},
  "deployedLinkReferences": {}
}